S01300005443505F49505F544553542E7372656393
S214400000704C4020290B4000250B4000250B40003B
S214400010250B4000250B4000250B4000000000004B
S214400020000000000000000000000000250B40001B
S214400030250B400000000000250B4000250B40002B
S214400040250B4000250B4000250B4000250B4000AB
S214400050250B4000250B4000250B4000250B40009B
S214400060250B400000000000B1084000C1084000D9
S214400070D1084000250B4000250B4000250B4000D2
S214400080E1084000F1084000250B4000250B4000E9
S214400090250B4000250B4000250B40001D6F4000FF
S2144000A0250B4000250B4000250B4000250B40004B
S2144000B0250B4000250B4000250B4000250B40003B
S2144000C0250B4000250B4000250B4000250B40002B
S2144000D000000000250B4000000000009D69400025
S2144000E0250B4000250B4000250B4000250B40000B
S2144000F0250B4000250B4000250B4000250B4000FB
S214400100250B4000250B4000250B4000250B4000EA
S214400110250B40000000000000000000000000002A
S214400120250B4000250B4000250B4000250B4000CA
S214400130250B400000000000250B4000250B40002A
S21440014010B5054C237833B9044B13B10448AFF3CC
S21440015000800123237010BDA0084020000000004E
S214400160D8D84000084B10B51BB108490848AFF333
S21440017000800848036803B910BD074B002BFBD02E
S214400180BDE81040184700BF00000000A40840200B
S214400190D8D84000D8D840000000000070B51048BD
S2144001A0104C114DA0473E210020104B9847A847C1
S2144001B00028FCD00E4B98470E4D0F4A0F4B9A62C4
S2144001C0A8470028FCD002200D4B98470D4B102026
S2144001D098470D4B984723460C48BDE87040184753
S2144001E000A3E1119D0C4000C10940007109400088
S2144001F0D1094000E1094000013F182000060E40AA
S214400200010940002D094000D10B400080D1F00884
S2144002102DE9F0410E46144688B915460A4FDFF8D8
S2144002202C80611B002D314405DD3868013DD8F82F
S21440023000309847F5E724EAE470BDE8F0814FF0D7
S214400240FF30BDE8F08100BFDC374020D437402087
S214400250013802282DE9F0410E4610D88D180C467C
S2144002600A4FDFF82C80AC42A4EB06000BD038686F
S21440027014F8011BD8F8003098470028F3DA4FF0FE
S214400280FF30BDE8F081BDE8F08100BFDC3740209C
S214400290D837402000F01F024009012300F5001027
S2144002A093400A0700F207704FEA402001D54366A4
S2144002B000E00366CA0602D5C0F8943001E0C0F8F4
S2144002C090308A0601D5036500E0436511F0C00F03
S2144002D001D0036200E043620A0602D5C0F88430CB
S2144002E001E0C0F88030026F11F0010F14BF1A43CE
S2144002F09A4389070267426F4CBF134322EA0303BF
S214400300436770472DE9F84F0227DFF894815B4C2E
S2144003104FF0010B02212120A0474FF0100939462B
S214400320C8F804702020564DA0474FF4001AC8F86D
S21440033004B003212420534EA047C8F8049000215F
S2144003401520A0475946C5F804A07020A0474FF492
S214400350803359464FF4004B73606F20A047C6F871
S21440036004B000210A20A0474FF4806300210920F2
S2144003706B60A0474FF40073394606206B60A04779
S2144003804023394605206B60A047202339467A2013
S2144003906B60A0474FF08063394679207360A04772
S2144003A04FF0007300217E207360A0474FF08043DB
S2144003B000217C207360A0474FF08053394673205D
S2144003C07360A0474FF40023394672207360A047FD
S2144003D04FF480232C4A73602C4BC3F804B0A3F52B
S2144003E045635A60A2F580725A60BFF34F8FBFF3E1
S2144003F06F8F274BD3F8902222F00102C3F8902249
S214400400D3F8942222F00102C3F89422BFF34F8F10
S214400410BFF36F8F1F4E0A20B0470B20B0470C200B
S214400420B0474846B0471120B0471B4B4FF4807248
S2144004304FF4006688210B201A61C3F8A0201A6387
S2144004406E61C5F8A060A047C5F8C0600021C5F839
S214400450D4601520C5F8B060A047104AC5F804A07F
S2144004600321D2F81431242043EA0903C2F8143198
S214400470A047C8F80490BDE8F88F00BF950240003A
S214400480000E0E4000140E400C08005A50180E4045
S21440049000ED00E0F109400000120E4000800840E8
S2144004A000100E40436823F001034360436843F066
S2144004B002034360036823F0100303600020704784
S2144004C073B503680022184E044643F010030D46E9
S2144004D0036001ABB04700BB019B0246294620465D
S2144004E023F4B043114D43F480630193A847A0B969
S2144004F0636823F001036360636843F0020363604C
S214400500E36823F00103E360094B1A6842F00802EF
S2144005101A601A6842F004021A60236823F0100337
S214400520236002B070BD00BFDD06400031074000CA
S214400530000005402DE9F341036802AE114D00224C
S21440054043F0100304460F46DFF83C8003604FF448
S214400550004346F8043DA8470A253346002239465C
S2144005602046C047019B013D1B0401D5002DF4D118
S2144005702368B5FA85F023F010034009236002B0E3
S214400580BDE8F08131074000DD0640002DE9FF4719
S21440059001270E46144600233A4600974FF48061E2
S2144005A0DFF8348105463E48C0473A464FF480411E
S2144005B03C483D4B98473D4B40F2FF324FF0006180
S2144005C03B4898473B4F31463B48B8473B4BB8467D
S2144005D09C4260D83A4B9C420FD83A4B9C420FD82C
S2144005E0394B9C420FD8394B9C420FD8384B9C42D3
S2144005F08CBF4FF4802400240AE04FF4A01407E098
S2144006004FF4801404E04FF4402401E04FF40024FB
S2144006106B680DF110090222314623F4E013284698
S2144006202C4F6B606B681C4300236C60344649F863
S214400630043D2B6843F010032B604B46B847039BA2
S214400640222B14D04FF0200A01344B460222284673
S21440065004F01F042146B847039B222B09D00AF119
S214400660FF3A1AF0FF0AEFD14FF0FF0A02E0B24617
S21440067000E0A2462B68BAF1FF0F23F010032B6070
S21440068009D04B46012221462846B847564502D057
S21440069031462846C047002004B0BDE8F08700BF7A
S2144006A000120E40000E0E40F90740007D07400045
S2144006B000140E403505400000000540001C4E0E5C
S2144006C000688909000E270700B4C404005A620275
S2144006D0002D3101DD0640002908400013B584682E
S2144006E06407FCD59204C90502F4F80201F078616B
S2144006F042F0C04242F400320A430C4942630022B0
S21440070001928268540707D4019A01320192019AF5
S2144007108A42F6D9012006E082685207FCD5426B31
S214400720002092B21A6002B010BD00BF3F420F00D8
S21440073013B584686407FCD59204C90502F4F80230
S2144007409BB201F0786142F0A04242F400320A4384
S2144007501A4300234263084A019383685B0707D421
S214400760019B01330193019B9342F6D9012000E09F
S214400770002002B010BD00BF3F420F00B1F1C05F85
S214400780426410B52DD007D8B1F1006F15D0B1F145
S214400790805F1DD071BB10BDB1F1205F2BD005D856
S2144007A0B1F1005F26D1036F13431FE0B1F1405F04
S2144007B021D0B1F1605F1ED01CE0046FD343016FBF
S2144007C0214019400167446F416F21400B4010E0C3
S2144007D0036F13430367416F436F0B4023EA0203E3
S2144007E007E0016F036F0B4023EA02030367436F82
S2144007F013434367426010BDD307416401D5416649
S21440080000E0016612F00A0F01D0016200E041628A
S214400810930702D5C0F8801003E0130701D5C0F84F
S214400820841041610160704710B5029C41640CB170
S214400830416600E001660BB1016500E041650AB122
S214400840016300E041630161016010BDC06C704708
S214400850806C7047F8B50446124B0F4698470546DD
S214400860114B2046984705401AD0104C04F16006BC
S21440087054F80C3CBB420FD154F8081C29420BD00C
S21440088023683846984754F8083CA64225EA0305AC
S21440089006D0103425B1EBE7A64201D01034E7E786
S2144008A0F8BD00BF4D08400051084000C808402031
S2144008B00A210148014B1847000E0E4055084000DB
S2144008C00B210148014B184700100E4055084000C8
S2144008D00C210148014B184700120E4055084000B5
S2144008E010210148014B184700140E40550840009F
S2144008F011210148014B184700160E40550840008C
S2144009000238022896BF074B002233F81020064BC9
S214400910196B21F440710A431A639A6E1207FCD58C
S214400920704700BF9CA4400000060E400F4B1A6B59
S21440093022F07002104341F201021863986E0B4990
S214400940000703D4013AF9D1012070470A6B22F020
S214400950030242F002020A6341F20102996E09075D
S21440096002D4013AFAD1EFE70020704700060E4065
S21440097010B5104C30B1236A0F4A1A400F4B134340
S214400980236210BD226A090222F45C1389B223F066
S214400990030343F45C1343F001030B432362A36E4B
S2144009A0044ADB07FBD5136A43F09B7343F480335A
S2144009B0136210BD00060E40FCFFC8FE0200370161
S2144009C0024B986E00F48030704700BF00060E4021
S2144009D04FF00052014B9A62704700BF00060E402F
S2144009E0024B986E00F00200704700BF00060E40B3
S2144009F03F2817D81F280D4A4FF0010307D89169A2
S214400A0003FA00F030EA01030ED010610CE0203803
S214400A10D2F8081103FA00F030EA010304D0C2F815
S214400A20000101E0012070470020704700060E409C
S214400A3010B589010224431844504FF0FF319962A3
S214400A40196A5A6010BD890105234350704700EB70
S214400A508111CA61704700EB81114A627047F0B558
S214400A60022487B00194082402942024039480240E
S214400A7004940C9CE40B0594002401AD55F82450D6
S214400A80B1FBF5F686424FEA164704D3874204D9AF
S214400A900134052CF1D1002004E002B1156003B109
S214400AA01C60012007B0F0BDAC2310B503604A6857
S214400AB00B68B3FBF2F31B094FF6FE725C1E9442C2
S214400AC006D803628B68436050230360002010BD45
S214400AD0012010BD8160704743699B0702D5C16104
S214400AE000207047012070474369DB0703D58369C0
S214400AF000200B7070470120704743699B0704D560
S214400B00C1F30801C1610020704701207047436966
S214400B10DB0705D583690020C3F308030B607047E5
S214400B2001207047FEE7000007B51E4B1E4A9A425A
S214400B3002D0043A1D4903E01D4B00211D4A06E041
S214400B408B42F9D252F8040F43F8040BF8E793426D
S214400B5002D243F8041BFAE7174B184A23F07F03E8
S214400B609360EFF31083B3FA83F35B09019372B695
S214400B70BFF35F8F124A00231249137001980B6827
S214400B8043F470030B60BFF34F8FBFF36F8F20B1FA
S214400B9001231370BFF35F8F62B60B4B98470B4B26
S214400BA09847FEE700004020D8D840009C084020E8
S214400BB0A00840206C4840200000400000ED00E0C7
S214400BC00000402088ED00E045724000597140002A
S214400BD02C4A2D4B10B5116B01F0030101290CD0A6
S214400BE002D302291AD03BE0284949690C064CBF7B
S214400BF04FF400414FF4FA4131E0116AC8010BD47A
S214400C0023491960116A01F07001102902D0202989
S214400C1002D025E01F4922E01F4920E0116AC901A1
S214400C200BD41B491960116A01F07001102902D0DB
S214400C30202902D003E0174900E017491960116BDC
S214400C40104801F0030102290AD1816A806AC1F383
S214400C500A441968C0B204FB0111B1FBF0F11960F7
S214400C60126B02F07002702A04D11A680321B2FB9C
S214400C70F1F205E0034A126BC2F302111A68CA4049
S214400C801A6010BD00060E400400402010180E40AA
S214400C9000093D0000127A00001BB700114B984235
S214400CA0114B02D84FF0806219E0104A904201D8AA
S214400CB00F4A14E00F4A904201D80F4A0FE00F4AFD
S214400CC0904201D80E4A0AE00E4A904202D84FF0AF
S214400CD0042204E00C4A904294BF0C4A0C4A1A6024
S214400CE0704700BFBFF35E01000C0E407FE7BD02B9
S214400CF0000100043FDB1C0400020004FFCE7B051D
S214400D0000030004BFC2DA067FB6390800050004B7
S214400D1000060004074B1A680AB9074A1A601B689F
S214400D20064A18448242A3BF024A106018464FF053
S214400D30FF3070472C094020704E4020FCFF452075
S214400D404FF0FF3070474FF4005300204B60704721
S214400D50012070470020704740BA80B2704740BAC2
S214400D6080B2704700BA7047004B1847650D400088
S214400D702DE9F043304B85B00746894690462421FE
S214400D800022012098472D4D064610B92C48A8470A
S214400D904EE03C682B48A84714F10C0315BFE07B97
S214400DA01846217B1A4616BF627B1946A37B0090E5
S214400DB02548A8472548A84714F110030DBF1846F4
S214400DC0E07C217C1A4616BF627C1946A37C0090C4
S214400DD01D48A8471E48A8477568002385F8009018
S214400DE085F801802B716B71AB71EB713B68726853
S214400DF003F11C01083253F8040B8B4242F8040BF3
S214400E00F9D10027134B2846AF70EF707189984789
S214400E1004AA68803946E36830460F4C42F8043DE1
S214400E20012300970193FF23A04730460B4B98477A
S214400E3005B0BDE8F08300BF6126400095724000D3
S214400E40A2A44000E0A44000F9A4400009A5400048
S214400E503BD84000251140003D164000D5254000B7
S214400E602DE9F04F456887B00446514E95F80090FE
S214400E70059109F00F09DFF880814FEA890BCBF125
S214400E8000031BB219460493B047218908B90329C9
S214400E9003D8484B4848984783E063681978002948
S214400EA07FD00829434F79D1DFF83CA10599DAF87D
S214400EB00090424B4846984720B909F0F009B9F1EE
S214400EC0E00F01D13E481FE03E48B8472389072B34
S214400ED001D83D4818E020463C4B984708B13C486E
S214400EE012E0222120460FFA8BF9B047F0B149466E
S214400EF02046B047002854D1002221890220354B95
S214400F009847834610B93448B8474AE02146334BA1
S214400F109847002845D104995846DBF80450B04716
S214400F2000283ED120465C46C04705E06FF02101D0
S214400F302046B047002834D1DAF800304FF6F67134
S214400F4062684FF0FF0AEB602846254B1B682B6112
S214400F500023137053888B424FF014018CBF093323
S214400F6008335380002385F808A0AB72EB721D4B04
S214400F709847494668812046B047024688B9059B4F
S214400F802046194902930123184D8DE80C0053461C
S214400F90A847014628B11648B84702E05A7815488F
S214400FA0B8472046434607B0BDE8F04F184700BF55
S214400FB039254000957240000EA540009516400029
S214400FC03BA5400074A5400086A540003511400072
S214400FD0AAA5400061264000DEA5400091284000BA
S214400FE0E037402025114000E83740200D154000EE
S214400FF006A6400037A64000D52540000A460430E5
S2144010000321014B184700BF710D40000A460430CB
S2144010100B21014B184700BF710D400013B500234C
S21440102010F00104ADF8063006D0994210DD037882
S214401030013901308DF807300023012904DD30F8EE
S214401040022B02391344F8E704BF02788DF80620D5
S214401050BDF80600034498B200EB13439AB202EB85
S214401060134024B10302C0F307209BB2184380B25A
S21440107002B010BD2DE9F84F002605468946904639
S2144010801F463446DFF890B0DFF894A0BDB12A681A
S21440109029461F48D84769896868D0476B892044E5
S2144010A0DB0784B204EB104407D52302C6F10106E1
S2144010B0C4F307249BB2F6B21C432D68E6E726B17C
S2144010C02302C4F307249BB21C43D9F80020D8F867
S2144010D00000130C0F4D13FA82F212FA80F202EB64
S2144010E0104004443846A8470444BDF82800A847A2
S2144010F0204484B204EB104083B203EB1044064B0A
S214401100064821469847E04380B2BDE8F88F00BFC6
S2144011106AA64000590D400095724000A5A64000C2
S2144011201D10400008B5024B9847C04380B208BD2A
S2144011301D104000F8B500250646104F2C469EB1BF
S21440114071897068B84773892044DB0784B204EB22
S214401150104407D52302C5F10105C4F307249BB20A
S214401160EDB21C433668EAE725B12302C4F30724F0
S2144011709BB21C43E04380B2F8BD00BF1D10400048
S214401180104B13B51B6853B193F82D20D107F9D5F2
S21440119001685A684A4099680A42F3D10FE00A4B00
S2144011A01B681BB193F82D20D20708D48378427869
S2144011B00178C078054C00900548A04700231846A3
S2144011C002B010BD044840200848402095724000B8
S2144011D0D8A640002DE9F74F2B4F44682B4D2C489E
S2144011E0A8473846A84794F8008094F80190294EBE
S2144011F06088B0474B4608F00F024FEA181100903F
S2144012002548A8473846A847A088B0478146E08882
S214401210B0478246E088B0478346E088B04780467D
S214401220E088B047C0F30C00CBF38033CAF3CF322C
S2144012300190C8F34030494600901848A8473846C1
S214401240A84794F8088094F809906089B0474A46C1
S214401250034641461248A8473846A847E07BA37B4A
S214401260627B217B00900F48A8473846A847E07C21
S214401270A37C627C217C00900B48A84738462B46CE
S21440128003B0BDE8F04F18470BA7400095724000EA
S214401290FFA640005F0D40002EA7400069A7400013
S2144012A0A5A74000E0A740000DA840002DE9F04F5C
S2144012B04568884687B004462E783109042903D00D
S2144012C0754B7648984727E006F00F06744F6888B7
S2144012D0B8476289B6008146BA46964203D8238903
S2144012E0834204D30BE031466E486B4B98472289C5
S2144012F0914566D94946684B6B48984761E0314608
S2144013002846DFF804B2D847634F48B131462846EE
S214401310D84701466548B8472046654B984750E051
S2144013204946644B2046464698472B69624A4FF0EA
S214401330010B13609146614BE96803931960B368EB
S2144013402969726821EA0300019003EA02000B4013
S21440135000905B48B84796F82D30DB0711D5736888
S2144013607BB1D9F80000834206D196F82F2096F834
S2144013702E105448B84712E03146534B9847002841
S214401380F3D1BBF1000F02D0504B1E6800E0366828
S21440139046454FF0000B08BF3668002ECFD1039B62
S2144013A04146DFF824B11868D84728B9434B1B6834
S2144013B003F0F003E02B01D1454801E02EB9454843
S2144013C0B8472046444B984762E0EB8823F0C0037A
S2144013D0EBB1A888D0472289064605926888D04750
S2144013E00490ED882846D047C0F30C00049B314655
S2144013F0C000059A0190C5F3401000903748B847A2
S2144014002046374B98470446002841D04568354823
S214401410B847274B2046344E98472289618933483F
S214401420B8476B7A324A062B3560C2F8008092463F
S2144014300BD0112B05D0012B0CD1414620462D4B0D
S21440144006E0414620462C4B02E0414620462B4BC8
S214401450984715E04146D9F80000D84750B9164B92
S2144014601B6803F0F003E02B04D0656002212046A1
S214401470234B98472046184B9847697A2148B847E7
S2144014800023039ACAF8003033601360C9F800306E
S214401490002007B0BDE8F08F957240003BA84000A2
S2144014A05F0D40006CA84000BAA84000FAA8400073
S2144014B0D5114000E5274000E8374020E03740207F
S2144014C027A940006AA940009516400004484020DD
S2144014D097A94000BEA94000D5254000DCA94000A1
S2144014E0E11840003CAA4000EC37402048AA4000A3
S2144014F0E4374020610E4000755D40003D444000AA
S214401500FD0F40006DAA4000251140002DE9F04F28
S21440151087B01D4680468B469DF8443091469DF8E0
S21440152040700093129EDFF810A1002A4DD014217F
S214401530394A9047009B20B13848D0476FF00100A9
S21440154066E0D8F804400190637245EA03232572AA
S2144015500093D9F8003067703F021D0C236115FADE
S21440156083F5452323701F432D4BB8F8080003939B
S2144015709847019A6080A271E2712A4A0290039BC2
S214401580108801929847019AA080138802990133E7
S2144015901380BBF1000F02D0DBF8003013B972683D
S2144015A0E26000E0E360E36815FA83F505EB134577
S2144015B0009B3D441D44294401448AB202EB11413C
S2144015C001EB1141C943618105E043680DF11809FB
S2144015D01B6949F8043D96F8303096F82F2096F867
S2144015E02E101148D047114B40469847B38C43B114
S2144015F0B8F808209A4204D94A46314640460C4B31
S21440160005E00C48D04773694A46414630469847FD
S21440161007B0BDE8F08F00BF3925400091AA4000D2
S214401620590D400030094020C3AA4000D511400063
S2144016304D1C4000DAAA400095724000F0B50546C1
S21440164085B01F4610460F4B0E461446984750B975
S214401650E078A3786278217800900B4C0B48A0473E
S2144016606FF003000CE09DF82C3022460290314685
S214401670019328469DF82830054C00933B46A047EA
S21440168005B0F0BD8111400095724000EAAA4000C6
S2144016900D154000431E033313D891F82D2002F059
S2144016A0020202F0FF037AB14A6890420BD08B6880
S2144016B042401A4207D1DB4383430CBF0123002339
S2144016C002E0012300E00023184670472DE9F34767
S2144016D08C4603680DF107070DF1030000250A2626
S2144016E04FF02E0E019310F8014F00230DF1080A1B
S2144016F003F10109B4FBF6F806FB18449A445FFA76
S21440170089F930340AF8084C18F0FF0401D04B46EB
S214401710ECE7047064462D1BFF2B04EB050C0ED043
S21440172003F1FF3894455FFA88F816DA0DF1080C95
S214401730634413F8083C04F8013B4346ECE7944501
S2144017400CF1010509DAB84204F1010C84F800E016
S214401750C9D100230846237000E0002002B0BDE84F
S214401760F087000010220149014B184732094020FB
S214401770CD1640002DE9F047466804460F4673688C
S2144017809A88C2B91B6800F11C01436000F1080347
S214401790726853F8040B8B4242F8040BF9D10121CE
S2144017A03046174B98473046164B9847164B85B2EF
S2144017B03046984700E000256668DFF84880DFF846
S2144017C0489056B173683046D3F800A0C0472844C6
S2144017D085B23046C8475646F3E70C4A21460420B1
S2144017E013689C4223680CBF13603B60084B9847C5
S2144017F0084A284613885B1B1380BDE8F08700BF65
S2144018000D10400039284000D525400044094020AE
S21440181081224000480940202DE9F84306460F46FD
S2144018200025DFF86480DFF864900024D8F80030A4
S21440183021462046F3B1D6F80CE05A69724509D1E4
S214401840D6F810E09A69724504D1B3F80CE0B28835
S214401850964509D0013430B193F81FE0C27F9645D3
S21440186098BF184600E018461A68002A18BF19465E
S2144018701346DFE708B1C8470544BD4201DA012CEC
S214401880D3DC2846BDE8F88344094020751740005D
S2144018900E4B2DE9F04100251C680D4E0D4F94B1BE
S2144018A0E17F39B101390C482546C9B2E177B047E6
S2144018B02468F4E70948B047D4F800802046294613
S2144018C0B8474446EBE7BDE8F08100BF44094020F6
S2144018D0957240007517400018AB400035AB40008D
S2144018E02DE9F04F446885B00546237803F00F0392
S2144018F0052B01D0B6485EE0B64EE088B047019072
S2144019006088B047237802902846DFF80883039320
S214401910C047B14A0746CDF8008013889146034435
S2144019200A2B11DD0146AD4B2046984720B1B9F849
S21440193000303B440A2B07DD0A233A46B9F800102C
S214401940A74CA848A0471BE1A74A4FF0000AD2F888
S21440195000809146B8F1000F1DD0E268D8F8141008
S214401960914214D12269D8F8181091420FD1A2881A
S214401970B8F80C0090420AD1B047994A01469B48B5
S2144019809047E088B047C0F30C0048BB16E0C2461C
S214401990D8F80080DEE70420DFF87CB2D8478046DF
S2144019A0002840F0FA80394620468C4B98478742BC
S2144019B040F3ED808E488A4B9847E1E0B8F80E0039
S2144019C0844A9047C0F30C0050B1224608F1080103
S2144019D004F1140052F804EB824241F804EBF9D1CA
S2144019E07D4A11880F441780E188144611F0200F75
S2144019F016D1039B98F81E2003F00F01029B42F07D
S214401A0001027C48A3EB8101019B88F81E20C3F3AA
S214401A100C0201EBC201724A89B2A8F81C1090472A
S214401A20D5F80490B9F80200B04799F8007007F06E
S214401A300F07A0EB870087B2B9F80600B047C0F39F
S214401A400C006E680022C00001233270074472709A
S214401A50B270BFB2F270B080F780D8F80410002998
S214401A6000F0DE80D1F804C0BCF8049048450AD2A5
S214401A703160B2B1D18881422FD8BCF80410B94247
S214401A802BD315600FE028D0BCF80610814224D82E
S214401A901AB1D2884A4518BF0023DCF800106246C7
S214401AA0DDE7C8F8045098F81E20D20740F1C280FF
S214401AB0002B00F0BF80D8F8040042689288002AC5
S214401AC040F0B880326892B15168F5888A8895426D
S214401AD040F0B0800A680E46F5E7009B28469847D7
S214401AE02388181A444B208028469847A2E0B8F826
S214401AF01C201432A8F81C2008F10802456808F19A
S214401B001C002E68294652F8047B824241F8047B2A
S214401B10F9D13A4AB8F81C00904700226880142150
S214401B20AA712846EA71AA72EA72354A9047354F3A
S214401B306881DFF8E890D8F804505EB1D6F804B073
S214401B406FF013013046B84731462846C847DBF8A1
S214401B500060F2E7244904202B4B0A689045D8F8E9
S214401B60002008BF0A60414618BFCAF800209847C0
S214401B70009B284698472388181A208028465EE00F
S214401B80174B2248984728461B4B984756E0042058
S214401B90D847804600283FF40DAF2022002140461B
S214401BA01B4B9847032208F1080104F1140088F8FB
S214401BB01F20D9F80020C9F80080C8F80020224627
S214401BC052F804EB824241F804EBF9D108E700BF33
S214401BD054AB40005F0D40004809402019184000B3
S214401BE09572400083AB400044094020BDAB4000A6
S214401BF0EAAB40000CAC4000D5254000590D4000F3
S214401C0025114000392540008122400039AC400073
S214401C1055744000392840002D2240005528400089
S214401C20002A3FF43EAFD1881560B288914218BF73
S214401C30002338E721880348034B9847002005B027
S214401C40BDE8F08F4FAC4000957240002DE9F04F54
S214401C5089B08B8C82468B460393436807920293E7
S214401C60D8883B4B9847C0F30C0900F40050082234
S214401C70BAF8084083B2143C0593039BA4B2143BC5
S214401C8093FBF2F39BB20493DB009BB206931423C0
S214401C900193002C54D0059BC9F30C080022012068
S214401CA043EA0808039B133BA3422A4BD6BF069E33
S214401CB0264648F40058314698470546002841D005
S214401CC041683246019B5046234FB847019B14213A
S214401CD0034428469BB20193204B984718B12846A8
S214401CE01F4B98472EE0029B6A681946143153F8FA
S214401CF0040B8B4242F8040BF9D16F684046DFF87C
S214401D006880A41BC047F88006F11400A4B280B2D5
S214401D10C047002278801421BA723846FA72114AB7
S214401D209047079A78812946DBF8143058469847FA
S214401D300B4B28469847049B4B441FFA83F9A8E769
S214401D40204601E04FF0FF3009B0BDE8F08F00BFFD
S214401D505F0D400061264000812940003925400043
S214401D60D525400025114000590D400010B5074BC1
S214401D709847074B9847074B9847074B9847074B5A
S214401D809847074BBDE81040184700BF6D1F4000FE
S214401D90DD21400095224000115D4000712A400040
S214401DA0B91E40002DE9F34105461E4605201A4B54
S214401DB08846174698470446002829D000230661DF
S214401DC0C0F808802A4603600146C760334645602F
S214401DD0124E00971248B047124A13682BB1586803
S214401DE0854208D2401B58602360146010E0486863
S214401DF0824208D30B4659686268521A6260196874
S214401E000029F4D101E0821A4A601A6822601C60F8
S214401E1002B0BDE8F08100BF2D2240009572400020
S214401E206BAC4000540940200B4B10B41A6882B982
S214401E300A4A126812B90A4A126852B10122094C7B
S214401E400949FA201A60A446084B00225DF8044B64
S214401E5060475DF8044B70474C09402014484020CA
S214401E6028484020A51D4000711E400097AC400009
S214401E700A4B10B598470A4B1B6813B9094B1B68A9
S214401E8043B1094C0022094BFA20A4460849BDE854
S214401E9010406047074A136010BD00BF2937400016
S214401EA01448402028484020A51D400097AC4000DC
S214401EB0711E40004C09402010B5094B00220949CC
S214401EC04FF47A70084CA047084B0022084941F26C
S214401ED08830A047074B9847074B186010BD00BF97
S214401EE0A7AC4000351F4000A51D4000B6AC4000E2
S214401EF0FD1E4000D16F40005009402010B5074BF2
S214401F00074C08489847084B9847A446074B00227A
S214401F10074941F28830BDE810406047957240005E
S214401F20A51D4000C0AC400091614000B6AC4000EA
S214401F30FD1E400010B5074B074C08489847084B15
S214401F409847A446074B002207494FF47A70BDE8ED
S214401F501040604795724000A51D4000D5AC40003B
S214401F6091184000A7AC4000351F40000A4B4FF484
S214401F7080510A4A23F0030309481360002219805F
S214401F805A801A715A1802600120118051801071CF
S214401F90044A1360704700BFF33740206009402072
S214401FA05C09402058094020F0B408B9214808E0B0
S214401FB0214B1B68984203D3204A1668B04203D38D
S214401FC01F48204BF0BC18470021A0F1080230F80B
S214401FD0085C00F8041C1C490C68A24203EB05048C
S214401FE038BF0A60A2420FD027796FB9A6420BD0FD
S214401FF00E68B44204BF144C22605C5B20F8084C68
S2144020005C5BD51A1C44658030F8064C1D19AA4204
S2144020100DD02E795EB909688A4204BF0A4A156017
S21440202030F8082C1A5330F8082C13445C80F0BC67
S214402030704700BF05AD4000600940205C09402065
S21440204026AD4000957240005809402003314FF6B7
S214402050FC720A400B2AF8B5044603D9B2F5805FF5
S21440206001D94AE00C22264B1B68A34203D82549D7
S21440207009688C4203D3244B244898473BE0A4F19C
S214402080080034F8085CC01AA5F1080180B2091AA5
S21440209089B2914231D32ED05E1937797FB900F19B
S2144020A008015F5B1A4D0A44296892B28E4203EBE0
S2144020B0020108BF296000250D719F5212E002F10F
S2144020C014058D4217D800F10801114D0A442E68B8
S2144020D092B29918B14238BF296000250D7134F884
S2144020E0085C9D52488024F8082C995AB1F5805FC8
S2144020F01CBF5B185A802046F8BD0020F8BD00BFC4
S214402100600940205C0940209572400040AD400088
S214402110580940202DE9F041002852D003304FF6B0
S214402120FC7101400B2903D9B1F5805F01D947E026
S2144021300C21254DC1F58058244E2A683468131B5F
S2144021409BB2434539DAE01834F803E090F804C00F
S214402150BCF1000F2FD1AEF10807FF1A8F422AD3E9
S21440216001F1140E774514D30831194489B2671823
S21440217087F804C0B0F800E024F801E07B80012333
S21440218001800371635AB3F5805F04D01C446180BC
S21440219001E00123037182420AD10D4B31681B686E
S2144021A0147924B19A4202D012880A44F8E72A6089
S2144021B00830BDE8F0817346C3E70648064B9847AB
S2144021C00020BDE8F08100BF58094020600940204B
S2144021D05C0940205AAD4000957240000F4A0023EB
S2144021E00F4922F00302F0B51C460E4D0E4E4FEA44
S2144021F0430C35F813E0002041F8044F87B2BE4543
S21440220007D90F68013017603CF806700A603A44F8
S214402210F4E70133082BEAD1F0BD00BF6709402040
S2144022204C24402084AD4000ACAE4000072810B59A
S21440223007D90C4B4FF4C7720B490C480C4CA047BF
S214402240FEE70C4B53F820401CB1226843F8202090
S21440225005E0094B53F820100848054B98472046A0
S21440226010BD00BF94AD4000CAAD4000E7AD400091
S21440227095724000502440208CAE40000FAE400087
S21440228029B1034B53F820200A6043F820107047CA
S21440229050244020704700002DE9F043064685B0A4
S2144022A00C461E4F19B30A6843689A4233D01C48FE
S2144022B0B8471C4BDFF87C901D6865B12A68736888
S2144022C0D5F80C809A4204D129461748B847284684
S2144022D0C8474546F1E7154B1B68E3B11A6822B17B
S2144022E071688A4204BF22681A60DB68F5E70B46CD
S2144022F0180E736096F82F200290C3F3074096F8A6
S2144023002E100190C3F30720DBB200900848B84770
S21440231005B0BDE8F0832368EAE700BF9572400049
S214402320F2AE40001448402021AF40001C484020F8
S21440233048AF40009D3240001FB509B10B6800E031
S2144023400B46C36090F82F2090F82E10180E064CBF
S2144023500290C3F307400190C3F30720DBB200901E
S2144023600248A04704B010BD9572400084AF4000BC
S2144023701FB509B10B6800E00B46836090F82F202C
S21440238090F82E10180E064C0290C3F307400190AA
S214402390C3F30720DBB200900248A04704B010BD4C
S2144023A095724000C0AF400070B5044616461D46C4
S2144023B0054B984731462046044B984729462046C9
S2144023C0034BBDE8704018479922400071234000F7
S2144023D0392340002DE9F7430A9F0025DFF8ECE05B
S2144023E0044607621E469EF8007089464560904641
S2144023F007F1010C80F830700C9F85600761C5605E
S21440240080F82D50C561294F8EF800C0B847204649
S2144024100B9B9847002845D1254B94F82E101A68F8
S21440242024482260244D94F82F201C60A847B9F118
S214402430000F08D099F8001099F8012099F802305A
S21440244099F8030003E04B464A4649464846009002
S2144024501A48A8471A48A847B8F1000F08D098F875
S214402460001098F8012098F8023098F8030003E02E
S214402470434642464146404600901048A8471148C9
S214402480A84726B131787278B378F07803E03346BF
S21440249032463146304600900848A8470A48A84782
S2144024A0204600E0284603B0BDE8F083A92340005C
S2144024B004484020F9AF400095724000F9A440001F
S2144024C01EB0400028B040003BD84000702440205A
S2144024D0064B186020B190F82E1090F82F2001E09F
S2144024E027210A460248034B184700BF08484020A9
S2144024F02DB040009572400010B590F82D3004463F
S214402500DA0712D443F0010380F82D30C36903B1D3
S214402510984794F82D3003F03003302B05D1211D19
S2144025202046024BBDE81040184710BD05624000EB
S21440253000B1C1617047000038B504460B4600291B
S21440254037D0002835D000290CDA4A42418992B269
S214402550914208D2194B40F20F22194919481A4C99
S214402560A047FEE78AB2217B656809B103290AD1F4
S214402570E91A04F11002914261600ED21348124BE0
S2144025809847656017E00139012914D8002B12DA04
S214402590618991420FD3EA1A626098B261892289B2
S2144025A0014402440A486181294622816268064CF9
S2144025B0A047002038BD012038BD00BFA1B0400074
S2144025C0D7B04000E7AD400095724000F5B04000FF
S2144025D03CB140002DE9F84304461A4E20B91A484B
S2144025E0B0472046BDE8F8830025DFF87080174FD7
S2144025F001461748B047E289013A92B2E281D2B921
S21440260021461448D4F80090B047237B032B02D1D0
S2144026102146072004E0013B012B03D82146062033
S214402620B84701E02046C0470135EDB2B9F1000F8A
S21440263004D04C46DFE721460748B0472846BDE869
S214402640F88300BF957240005EB140008122400092
S21440265080B140008FB14000ABB14000A91F4000A0
S2144026602DE9F74F0446544F544888461646B84717
S214402670032C00F29A80DFE804F0080204062225C4
S21440268004E00E2502E0002500E03625032E00F289
S2144026908C80DFE806F0516C6C02494E0720B0474C
S2144026A0044601464748B847002301961CB9012214
S2144026B0454B1A707BE003216219A2469B460D44A7
S2144026C013328946217325F0030522F00302236066
S2144026D0C5F5C06562600122A4F808804545E281E0
S2144026E0A8BF45466581C5EB0805002D54DD07208B
S2144026F0019B9847064638B90122334B20461A704C
S214402700324B9847304653E0B5F5C06F00F11002A3
S2144027102B4680F80C90A8BF4FF4C06380F80DB0ED
S214402720C0F800B0CAF80000824642600122058127
S214402730ED1A4381C281D8E705F1130008F103037F
S21440274020F0030023F003031844214B80B298473F
S214402750044660B305440023A0F808801335A0F86B
S2144027600A80036025F003050373456014E00620E5
S214402770134B9847044638B9164B17491748012E4D
S21440278018BF1946B84712E00023A0F80880A0F802
S2144027900A80436003600673012322464146104880
S2144027A0E38100236373B84701E0002000E0204641
S2144027B003B0BDE8F08F00BF95724000D8B140002E
S2144027C02D224000F0B140000C484020D525400066
S2144027D015214000D4B140007CAE40000FB240000E
S2144027E046B2400038B5028904468A421FD90D4693
S2144027F063899D4207D9ED1A23899B1AADB20B44D3
S21440280023812468F4E7227B4AB99D4207D0616859
S2144028102046074B091B294489B29847044620683E
S2144028206581258108B1034B98470023236038BD56
S2144028304D204000D525400003460022D0B201324C
S2144028400BB11B68FAE7704710B1C3890133C381E7
S2144028507047000010B500B139B9094B4FF43C72CF
S21440286008490948094CA047FEE702890B890468D5
S214402870134403810CB12046F7E7016010BD00BF4A
S214402880A1B0400064B24000E7AD40009572400001
S2144028902DE9F047314E05460A460C46014630487B
S2144028A0B047B04625B11CB12A8923899A4206D240
S2144028B02C4B40F25F322C492C48C047FEE74FF085
S2144028C0000ADFF8B890574666896B89CAEB060659
S2144028D06868DB1B61683844B3425144B4BF9EB25B
S2144028E0B6B2324637445644C8476389BFB21FFA29
S2144028F086FA53456B899CBF24684FF0000ABB425A
S2144029000AD12D683DB924B3164B40F27A321849A5
S2144029101648C047FEE7002764B1628923899A4279
S21440292008D1236833B10F4B4FF4607211490F48FA
S214402930C047FEE76A892B899A4208D12B6833B193
S214402940084B40F285320B490848C047FEE7002C4A
S214402950BAD10948C0470020BDE8F08795724000CC
S21440296015B34000A1B0400028B34000E7AD40009A
S21440297058B3400065B3400090B340002173400018
S2144029802DE9F04789469046054638B91D4B40F23A
S2144029909F321D491D481E4CA047FEE721B1002628
S2144029A0DFF874A037460FE0164B4FF468721949AB
S2144029B01648174CA047FEE705B34BB169898B42D2
S2144029C006D35B1A9BB22D68B8F1000FF4D115E020
S2144029D06C8909EB07006968E41A1944A4B24445B7
S2144029E028BF4446224626442744C4EB0804D04722
S2144029F00023B6B2BFB21FFA84F8E4E73046BDE81B
S214402A00F08700BFA1B04000B2B34000E7AD400041
S214402A1095724000D1B3400021734000124A4FF4F3
S214402A208043F0B54FF6FF751088104EA8424FF021
S214402A30000116BF01304FF4404080B256F82140A6
S214402A4024685CB1678B874206D1013B9BB2002B62
S214402A50ECD110801846F0BDE468F2E70131042955
S214402A60ECD11080F0BD00BF0800402054B44000B8
S214402A7070470000F8B5037E05460E4614463BB147
S214402A801C4B40F2B7121C491C481D4CA047FEE7A1
S214402A901AB91C4B9847044628B300221A4F57F8D9
S214402AA022301B685BB1598BA14206D11868E8B149
S214402AB0E6B13168D1B1884218D0DB68F2E701321E
S214402AC0042AECD116B1336803B12B600F4B6C83EC
S214402AD01A681D60EA600E4B98472146084B0D4821
S214402AE098470020F8BD6FF00100F8BD6FF0070072
S214402AF0F8BD00BF71B44000A6B44000E7AD40004A
S214402B00957240001D2A400054B44000244840209E
S214402B10291E4000CEB4400070B5868D0246016B3B
S214402B20846A731AC58E181940F2B4539D4294BFF6
S214402B30431BC31A002B01DBD68570BD631A0020E9
S214402B40002BD6BF091BD085D18570BD70B5838D4F
S214402B5040F6683204460D460B449BB2934294BFFF
S214402B60838582850B4B984740F2D923984206DDF1
S214402B70A37F204643F00203A377074B9847A28DD6
S214402B802946064CC2F536630548A4460833BDE8D8
S214402B9070406047192B4000E55540009572400054
S214402BA00CB5400010B5044658B1406818B1054B06
S214402BB098470023636021460320034BBDE810403E
S214402BC0184710BDD52540008122400038B5034C3B
S214402BD018B10568A0472846FAE738BDA52B40003F
S214402BE038B50446094B03209847054660B1204651
S214402BF02B4604F1140250F8041B904243F8041B81
S214402C00F9D16868024B9847284638BD2D224000C7
S214402C1049284000C0F880107047C16770470000E0
S214402C2070B5037E0446012B29D90A2B27D01448B9
S214402C30144DA847A36F33B11348A847134BA06F52
S214402C4098470023A367E36E0BB11148A847236F4C
S214402C500BB11048A847636F0BB10F48A8470F4EFB
S214402C600025606FB0474FF6FF73E06EA38665673A
S214402C70B047206FB047E5662567A4F86A5070BD38
S214402C803DB54000957240004CB54000D52540000B
S214402C9078B540009AB54000C1B54000CD2B400005
S214402CA02DE9F04FA54F87B0DFF8F4A23B68D34636
S214402CB001333B60A24B1A78039301321A70A14B42
S214402CC0A14E1C68049314B9A048B0477CE14FF06D
S214402CD000099F48B047039B94F821201B789A42EE
S214402CE002D1D4F80C8010E184F82130237E022BE8
S214402CF094F8463005D1062B03D1934B9548984718
S214402D0003E00C2B03D19448B047012557E094F8D4
S214402D109530C3B194F89420904901321944D2B208
S214402D2011F8011C84F89420914247D8062B4FF0A6
S214402D300002204698BF013384F8942098BF84F858
S214402D409530874B39E0B4F93430002BA4BF0133BB
S214402D50A386236F93B3B4F93410B4F94420914258
S214402D602CDB8048B047237E022B0CD0B4F94020A1
S214402D70B4F942307C4903EBE20394F846208A5C7F
S214402D809340A4F844300023B4F86020E18EA38634
S214402D90B4F84C3075489342A4F84C1028BF1346FC
S214402DA04A005B089342A4F84E30B8BFA4F84E20C1
S214402DB0B4F84E20B04720466D4B98470025237EFA
S214402DC0062B0BD1A37FDB0608D53B68626A9B1AAD
S214402DD0282B03D901356748EDB2B047237A03F074
S214402DE0080303F0FF08002B33D0237E042B01D0CA
S214402DF0072B2CD1636A4FF4FA703968C91AD4F895
S214402E00903003F5242202F6B842B2FBF0F291422B
S214402E100BD9E0790135A3794FF001086279EDB21C
S214402E20217900905448B04713E094F89620DFF894
S214402E3074E10EFB0233B3FBF0F3994207D94F4BD4
S214402E402046984794F89630013384F896304FF0F1
S214402E500008606F78B1B4F944303A68616A03EBB1
S214402E604303521AB2EB430F05D3454B9847002312
S214402E7044486367B047237E032B08D13B68626AA9
S214402E809B1A282B03D901353F48EDB2B047237E25
S214402E90092B07D13B68626A9B1AF02B02D93B4844
S214402EA0B04701E0002D32D0394B20469847E368C2
S214402EB0B9F1000F02D0C9F80C3001E0049A136053
S214402EC0B8F1000F09D0A38B2246324D0193638B95
S214402ED00093231DA16A206DA847236921462E4AE8
S214402EE00120D4F88C500593D4F80C8090470022EB
S214402EF08AF8002025B1059B6FF009011846A847BF
S214402F009BF80030002B7FF4DAAE4C4656E0E37F69
S214402F1094F820200133D4F80C80DBB29A42E37751
S214402F204CD8E5771D48B047D4F888308AF800502A
S214402F30D3B321462069984737E000BF1848402061
S214402F40722440201448402095724000E6B5400068
S214402F5003B6400027B640004DB64000A6BB400032
S214402F60F95B400074B6400064B4400099B6400037
S214402F702D5A4000BDB64000ECB64000415B4000D4
S214402F80CD2B400035B740005EB740008BB74000C1
S214402F90212C40006959400081224000B8B74000CB
S214402FA010484020F824010028469BF80030002BAB
S214402FB07FF485AE10B92046154B9847B8F1000F00
S214402FC002D0A146444684E6124E0025DFF84880EB
S214402FD03468DFF84890BCB13B68626A9B1AF02BB5
S214402FE004D8D4F80CA025465446F4E72046C047FB
S214402FF0E3680DB1EB6000E0336021460120D4F871
S2144030000CA0C8472C46EEE707B0BDE8F08F00BFDF
S214403010E555400028484020212C400081224000B1
S21440302010B503680C468B4202D1CB68036010E0B3
S214403030134A0021136053B1D868844204D101B1C9
S2144030401360E268DA6004E001210346F3E701B169
S214403050136000232046E3600A4B9847237E0A2BE2
S2144030600AD0012B08D0A37FDA0705D543F0020328
S2144030702046A377044B98470023237610BD00BF15
S21440308020484020212C4000E555400037B50446F6
S214403090037E00293FD0042B01D0072B3BD1A26FE3
S2144030A022B9A18D40F66832914234D0A38B224695
S2144030B0A16A0193638B206D0093231D3B4DA84767
S2144030C03B4B204698473B4A13689C4201D1E368F5
S2144030D00FE0394A0021136053B1D868844204D1C6
S2144030E001B11360E268DA6004E001210346F3E7C9
S2144030F001B11360314B012000251870237EE56036
S214403100042B3CD10A2323762D4B1A681C60E260C0
S2144031102C4B984746E0072B44D8DFE803F00422C0
S21440312029343443433A638BC3B1274A13689C42DD
S21440313001D1E3680FE0204A0021136053B1D868FC
S214403140844204D101B11360E268DA6004E00121F0
S2144031500346F3E701B113600023E36021460120F4
S2144031600EE0214619481A4B98472146022007E0B0
S21440317010482146164B98470120104B18702146A0
S214403180144B98470EE02046134B984758B90523F2
S21440319004E02046104B984728B90923237620465A
S2144031A00E4B9847002003B030BD00BF6959400021
S2144031B0212C400014484020204840201048402001
S2144031C028484020291E4000244840201C484020D3
S2144031D0213040008122400001554000E555400026
S2144031E02DE9F347037E04468A46234E0A2B234B9B
S2144031F009D101462248984721460120334602B06D
S214403200BDE8F0471847D0F850800146D0F82890DF
S214403210D0F88C5007691B48984701221A4B206FFC
S2144032201A7008B1194B9847E06E08B1174B98478B
S214403230606F08B1154B9847BAF1000F0DD0144B8C
S21440324014489847A38B4046224601934946638BD1
S214403250DFF844800093231DC04721460120B04735
S2144032603DB16FF0090138462B4602B0BDE8F04745
S214403270184702B0BDE8F087812240002130400068
S214403280284840201448402010484020CD2B40007D
S21440329095724000DAB74000695940000121014B61
S2144032A0184700BFE1314000034A044B10681B68D2
S2144032B018441060704700BF0C004020184840205B
S2144032C02DE9F0418046414E0120414FB04704462B
S2144032D0002840D13F48404DA847404B38682246DA
S2144032E01B683BB1596A411A914224BF1C460A46A4
S2144032F0DB68F6E72CB121463948A8472046394BCB
S21440330098470120B047044628BB41463648A84760
S214403310364BD7F800C04FF07F0E1B68224673B17D
S214403320587E804509D3704507D8596AC1EB0C01D1
S214403330914222BF86460A461C46DB68EFE72CB120
S21440334021462B48A8472046264B98470120B047A1
S2144033500446002837D098220021264B204698471E
S21440336040F66833002184F81980A4F86630A385B7
S214403370E385FF23A4F86810A3724FF406736172C6
S214403380E3860623A4F84010A4F84430A4F842305C
S2144033904FF6FF73A3860123A4F84C30164B98478C
S2144033A03B68A0656362154B20651B78A06484F873
S2144033B02130134BE065C4F88030124BE177C4F8F7
S2144033C0903084F896102046BDE8F0812D224000CB
S2144033D018484020F4B740009572400028484020E6
S2144033E028B840009D32400061B840001448402054
S2144033F098B8400055744000A932400072244020DE
S214403400D535400000DD6D004020014B184700BF19
S214403410C132400010B5074B04460846984730B1C5
S214403420838C23B1283B9BB29C4228BF1C46204637
S21440343010BD00BF811140002DE9F0411E46037EBD
S21440344004460F461546DFF8348133B13C4B40F214
S214403450B3223C493C48C047FEE711463B48C0477C
S214403460002F65D03B68A5836360236833B9201D71
S214403470374B984700285FD043682360658B35B349
S214403480344B98472065013840F668330022394669
S214403490A064E0654FF40670A385E385A4F8603029
S2144034A0A2622D4B2263E08698470123E08600EB1C
S2144034B08000A4F84C3002219840C4F88460274B22
S2144034C0A4F84E002046984750B1BDE8F081244B02
S2144034D0984760830028D3D16FF00100BDE8F081A3
S2144034E002232376ADB11F4A13689C4201D1E3689C
S2144034F00EE01D4A136053B1D9688C4204D100B126
S2144035001360E268DA6004E001200B46F3E700B19E
S2144035101360164B1A681C60E260154B98470122F0
S214403520144B20461A70144B98470020BDE8F08193
S2144035306FF00500BDE8F0816FF00300BDE8F08154
S21440354071B44000C3B84000E7AD4000F3B8400057
S21440355081114000A932400015344000D553400048
S2144035601D2A40002448402020484020144840203F
S214403570291E400010484020E55540009572400006
S214403580024B53F820100248024B184728B440001C
S2144035900CB940009572400010B50446094B0A48E5
S2144035A09847207E094B9847237E20460121012BD1
S2144035B01EBFA37F43F01003A377054BBDE8104022
S2144035C0184700BF9572400017B94000813540004B
S2144035D08D30400010B50846144632B11189064B6E
S2144035E098472046054B984704E01BB9044BBDE876
S2144035F010401847002010BD4D2B4000D5254000F8
S214403600993540002DE9F0474FF00009866F054692
S2144036101E4C96F80DA0C0F8789027461C48A04748
S214403620D5F88080B8F1000F05D04B463246294683
S2144036302869C04705E04346324629464046154C71
S214403640A0470446A8B91AF0200F1BD0AB8D40F611
S2144036506832D5F8804093421CBF0133AB858CB1AD
S2144036600023294628691A46A04710F10A0F09D1B7
S21440367009E010F10A0F04D10748B8472046BDE8D4
S214403680F087AE670020BDE8F08700BF9572400027
S2144036902EB94000D53540004DB940002DE9F047E1
S2144036A01A4D1B4F2B78DFF8788001332B703C681F
S2144036B0184E2B783CB394F821209A42FAD084F8DE
S2144036C02130A37FDB070BD51348C047A37F204696
S2144036D043F00203A377B047A37F23F00303A37707
S2144036E0A36FD4F80CA00BB95446E2E7DFF8349049
S2144036F00023204689F80030084B984799F8003058
S214403700002BF1D0D3E7BDE8F08700BF72244020FD
S21440371014484020E555400086B940000536400034
S2144037209572400010484020074B10B59847074A0E
S21440373013780133DBB21370DB0703D5044BBDE8C7
S2144037401040184710BD00BF9D36400071244020F1
S214403750A12C400010F0010F70B50546124C01D068
S2144037601248A047AA0701D51148A0476B0701D5C4
S2144037701048A0472E0701D50F48A047E80601D5B8
S2144037800E48A047A90601D50D48A0476A0601D5B0
S2144037900C48A0472B0601D50B48A04723460B48AC
S2144037A0BDE87040184700BF95724000A0B9400081
S2144037B0A5B94000AAB94000AFB94000B4B940002E
S2144037C0B9B94000BEB94000C3B940003BD840003C
S2144037D02DE9F04F354F8BB00446354D3548A84758
S2144037E03846354EA8472088B04780466088B04760
S2144037F0414602463148A8473846A847DFF8D880B1
S2144038006068C04701462E48A8473846A847A06883
S214403810C04701462B48A8473846A847A089B04726
S2144038208246A089B0478346A089B0470990A089C0
S214403830B0478046A089B0478146A089B0470890E7
S214403840A089B0470790E089B04707990490C9F32C
S2144038508000089A01F001010190C8F3C000099B5E
S214403860C2F340020391CAF30F310292C3F300132E
S214403870CBF3401200901448A847A089B047134B9A
S21440388000F03F0098471248A8473846A847208A85
S214403890B0478046608AB047414602460D48A84732
S2144038A038462B460BB0BDE8F04F18470BA74000F4
S2144038B095724000C8B940005F0D4000D5B9400041
S2144038C00CBA400033BA40005ABA40005537400060
S2144038D09ABA4000A3BA4000690D40002DE9F84F5F
S2144038E0036905461F4E0C469889B047C20705D463
S2144038F01D4FDFF88080DFF8809024E020461B4B89
S214403900984700242BE039682A89D4F810E00A4406
S2144039102089DEF80430101AC01A002816DBBEF8DC
S2144039200C00B047C30709D5D5F810B00120BBF846
S2144039300CA0C0474AEA0000ABF80C00D4F800A040
S2144039402046C8475446002CDDD108E0D21A002A4B
S21440395005DD591A6868064B89B2298198472C605C
S214403960BDE8F88F5F0D400074244020CD2B40000A
S214403970E5274000590D4000A52B4000B24B2DE9ED
S214403980F04F1B7885B00446B04F13F0100F00F090
S2144039902882436DB0F86090D0F858803868AC4EB6
S2144039A01A1AAC49AC4D002A0FDB834204D1326868
S2144039B0C2EB0802002A08DBD6F800C0E04521D159
S2144039C00A68B2F80EE0CE451CD90B68B4F86220FF
S2144039D0D989A4F86010DB8960659A4238BFA4F89C
S2144039E062303368A36594F8953021B93BB984F8C2
S2144039F09410012301E013B1002384F895309748D2
S214403A00A84709E00968C989494505D062468DE856
S214403A1001019348A16CA8473268A16C531A002B49
S214403A2036DC0023A4F864308E4B1B88002B40F015
S214403A308784B4F86000C844A36D0344984540F0BA
S214403A407F84B4F93430002BC0F27A848A4240F046
S214403A50778494F84720531CDBB29A4238BF84F8E8
S214403A60473094F84730032B09D9B4F84C20E38EFE
S214403A7013449BB29A4206D2A4F84C3003E002D1DB
S214403A802046794B9847DFF8C8A1DFF8EC9169E10A
S214403A90216D511A002900F3D280A17F9BB2B4F960
S214403AA040E04807A4F864304FF00000A26448BFE6
S214403AB021F0040184F8460044BFA177B4F84E10C4
S214403AC084F8470048BFA4F84C10B4F8421001EB05
S214403AD0EE01A4F84410B4F866100B44A4F866301F
S214403AE0237E032B1DD9B4F84E30B4F84C209342B5
S214403AF0E38E09D913445D489BB29A4238BFA4F876
S214403B004C30B4F84C100BE05B43594893FBF2F34F
S214403B1013449BB29A4238BFA4F84C30B4F84C10C9
S214403B20A847226FD6F800902AB113695868514BBF
S214403B309847824600E09246236F93B11B695868C7
S214403B404C4B9847236F8046B3F808B01B6998895A
S214403B50494B984710F0030018BF012000EB0B03B9
S214403B60434452464946DFF80CA1DFF80C914348DF
S214403B70A847236F3BB9226F0023002A5CD14FF63B
S214403B80FF72A28659E01B695868D047236F80466B
S214403B90B3F808B01B699889C84710F0030018BFEF
S214403BA0012083443068C0EB0808D844B8F1000FC1
S214403BB0E1DC236F1B695868D047236F83461B6937
S214403BC05868D047236F0290B3F808801B699889DD
S214403BD0C84710F00300029A594618BF0120804497
S214403BE027484244A847D4F87080B4F86810D8F8FC
S214403BF0003024482367A847B4F864305BB1D8F84F
S214403C0010309889C847C00742BFB4F8643003F103
S214403C10FF33A4F86430D8F804001B4B9847B4F838
S214403C206830181A194BA4F8680040469847B4F80C
S214403C3068101748A8479CE7A386E37723E7002346
S214403C40A4F864301FE700BF84244020742440203A
S214403C50802440208824402095724000ADBB400020
S214403C60CDBB40007C244020B15A400017BC4000E9
S214403C7039BC4000690D40005F0D400065BC400007
S214403C8094BC4000C3BC400039284000A52B4000EF
S214403C90E2BC400031681B690391DFF804B3586802
S214403CA0D8478046E06E0289006902928089C847FC
S214403CB010F00300039918BF0120029AC8EB0108D0
S214403CC00244C2EB0808B8F1000F4EDB216DDAF86B
S214403CD00020521A002A48DCE26E12695068D84723
S214403CE0E26E029012695068D847E36E8346B3F896
S214403CF008801B699889C84710F00300029918BFCE
S214403D00012000EB080292485A44A847D4F86C8039
S214403D10D8F80030E3660BB9A4F86A30B4F86810F7
S214403D208C48A847B4F8643063B1D8F81030988906
S214403D30894B9847C10742BFB4F8643003F1FF335C
S214403D40A4F86430854BD8F804009847B4F8683037
S214403D50181A834BA4F8680040469847B4F8681091
S214403D608048A847E36E002B94D13368E26BA16B82
S214403D707D48A847A66B002E33D07C4AE36B12687A
S214403D809B1A002B2DDA7A4B4FF4FA7279481B684F
S214403D909E1B794BB6B231B24A439847B4F94010AD
S214403DA07648A6EBE10292B213B21144002B09B258
S214403DB0B8BF5242A4F84010B8BF13B2B4F942207C
S214403DC0A2EBA20213444FF4FA729BB203EBE1015A
S214403DD0A4F8423009B2A4F844104A43A847002346
S214403DE0A363674BA26A18889846002800F09A8218
S214403DF0237E062B00F296823968561A012E26D468
S214403E00531C5B1A1B1A002B21DC5E4D3346686838
S214403E10428996420DDD0289921B002692B2418964
S214403E208B4204DD02815B1A46810068F7E75942FF
S214403E3000E0714209B2544B98472B893968A26A10
S214403E400B443A609B1A2B812B695A6009E08B1A07
S214403E50002B06DA484B4D489847A37F43F00203B1
S214403E60A3773968A26ADFF83C918B1A002BC0F220
S214403E7053824B1CA08D9B1A1B1A002B00F34C82BE
S214403E80914240F071813F4D334E2B69B5F808A002
S214403E909889B04710F00300A38D18BF01200AEBA5
S214403EA0000292B29A42A8F800203BD9A16A38484C
S214403EB00B44D9F80010DFF8C090C8472B699889A2
S214403EC0B047C2070FD5D5F810A0BAF80C904846B0
S214403ED029F47C59B0472F4B00F03E00984749EAFA
S214403EE00000AAF80C00A38DDFF898902B812B6970
S214403EF09889B0478307686842BFB9F8083003F12D
S214403F00FF33A9F80830244B298998472B69B5F820
S214403F1008909889B04710F0030018BF0120484425
S214403F20A8F80000636F002B00F0A7802B699889E3
S214403F30B047C00738D5DFF8289018480E4B98474A
S214403F40606F002800F0998003686367C847F7E70A
S214403F50FFBC4000C3BC40005F0D40003928400015
S214403F60A52B40002DBD400049BD40008024402088
S214403F701848402078BD400095724000ACBD4000D7
S214403F807C2440209024402039254000D5BD400068
S214403F90F6BD4000590D4000E527400043BE4000B6
S214403FA0690D400074244020D4F87490DFF8A8B21D
S214403FB0DFF884A2B9F1000F5DD03868B8F8003059
S214403FC0D9F810E00344B9F80810DEF80420591A6E
S214403FD0891A00292DDBBEF80C00B047C1071FD553
S214403FE02B699889D84782071AD4DAF8102001201E
S214403FF08C499389039202938847029B039A1843FD
S214404000BAF808309081DAF8102002939089D847A1
S21440401010F00300029B18BF01201844824B188002
S214404020D9F800304846814A02939047029B994609
S214404030C0E79B1A002B1EDD2B69121ADFF8F8A189
S2144040402A819889B0478307686842BFBAF8083023
S21440405003F1FF33AAF80830754B298998472B6936
S214404060B5F808A09889B04710F0030018BF0120A3
S2144040705044A8F80000C4F87490B8F800102046E1
S214404080A38D3A685B1ADFF8D4910A44A385A262EE
S214404090C8476B681A8922B1664A13600022664B8D
S2144040A05A602B699889B047C50707D5634B644863
S2144040B09847644A137843F020031370DFF874A1DE
S2144040C0DFF89CB1656F002D44D02A69A16A536819
S2144040D08B423FD13B609089B5F80880B04710F0DE
S2144040E0030018BF01208044A06A4044A0622B69A8
S2144040F0B5F808809889B04710F00300A38D18BF24
S21440410001204044181AA0852046C84769680B8994
S21440411043B1DAF8000008B1D84701E0CAF8001009
S21440412000236B602B699889B047C0070CD5434B7A
S21440413045489847434A137843F020031370237E3C
S214404140042B04BF072323762B6828466367374B28
S2144041509847B7E7A37FD90702D523F00103ECE0E1
S21440416043F00103A377F0E02046384B9847656F4D
S21440417025B93148364B98476067E6E0D9F80030B5
S214404180002603F1FF3E03F1010C286942689A427B
S2144041900FD129482B8902899A4240F2D6802C4B6F
S2144041A09847002800F0D1800EB130600CE0606780
S2144041B00AE07EB9991A00292FDA1F48244B9847FF
S2144041C0002800F0C28060672946224B05B0BDE853
S2144041D0F04F184731694968C1EB0E0100291CDBD6
S2144041E0C2EB0C01002918DC1348194B98470446CB
S2144041F0002800F0AA803369328959683B68D21A91
S2144042000A44002A05DD591A7068094B89B2318183
S2144042109847346029462046D7E729682E4609B392
S2144042200D46B2E7590D40007C244020A52B4000A7
S214404230E52740008C244020902440209572400082
S2144042407CBE40008524402098BE40005555400026
S214404250E12B4000DD3840005F0D4000192B400048
S214404260552840009B1A002B6FDD8089384EB0479A
S214404270C2076AD43748384B98472860002864D02D
S2144042802B692A8959683B68D21A0A44002A05DDF8
S214404290591A6868314B89B229819847A08DB8F879
S2144042A000203968A36A0344501898424DD92C48D8
S2144042B0DFF8B890C8472B681B699889B047C30792
S2144042C011D52B68D3F810A0214BBAF80C9048466D
S2144042D029F47C599847234B00F03E00984749EA1A
S2144042E00000AAF80C00A16AA38D2A680B4439681E
S2144042F05B1A13812B6819895868184B98472B68A6
S2144043001C891B699889B04710F0030018BF01202C
S2144043102044A8F8000018E02046134B05B0BDE83E
S214404320F04F18473B68991A002905DB01339B1A62
S214404330A28D9B1A002B08DDA37F43F0020311E7F2
S214404340002384F84730FFF79EBB05B0BDE8F08FEA
S2144043505F0D400090244020E12B4000E5274000C0
S214404360F6BD4000590D400055554000957240003E
S2144043702DE9F047294D0746294C2E68B089A047BD
S214404380C0F30F30052847D92B681436DFF8A880CD
S2144043909889A0470024000B451FAD00ADB2A5424A
S2144043A03AD9335DDFF890A0012B07D004D3022B17
S2144043B006EB040907D026E01A480EE001341A48F6
S2144043C0A4B2C047EBE71948C04799F80130042B20
S2144043D002D1E31CAB4204DB15485346BDE8F04728
S2144043E0184799F8022040F2B45199F8033040F249
S2144043F0B350043443EA02235A1E92B2824288BF24
S2144044000B463B8006E00B48C04799F80130002B2E
S214404410E2D01C44A4B2C2E7BDE8F087882440201E
S2144044205F0D4000B4BE4000C7BE4000DABE40004C
S214404430EDBE400007BF4000957240002DE9F04FAA
S21440444043680546A04C87B0187888469F4F00F0D2
S2144044500F00DFF8DCA223603E4603EB8000DFF867
S214404460D4923860D04723682846197801F00F0167
S21440447089004942C847298908B9132903D8944B6B
S21440448094489847A6E3944C4146944B20689847F6
S214404490002840F09F83236803F0F003E02B00F0F1
S2144044A099832B892246DFF84482284600930623C8
S2144044B04146DFF884B2D84768B12B892246414648
S2144044C0284600930623D847814B014684489847A0
S2144044D03868D0477EE33B68824C9889A047A04620
S2144044E0000BC0EB80308100284609B2C84707461B
S2144044F010B17D48764B8CE03468DFF840922088D7
S214404500C04720803468DFF838B26088C047608093
S2144045103468DFF818A26068C84760603468CBF833
S2144045200000A068C847A0603468CAF80000E08968
S214404530C0473368E0819889C0476C4CC3B26C4A28
S2144045402468BE4603F03F0113F0030369485F4604
S214404550117018BF01232A896749134404940A68D6
S2144045605D4C0380D4F800C01446CDF814908946BC
S2144045703368CDF808A00390002C00F03183A08B60
S2144045801988884214D1608B5988884210D1616856
S214404590049881420CD12168614509D1BEF1000FD3
S2144045A041D0E368CEF80C30534BE2601C603AE0F2
S2144045B0A646E468E0E7E468002C2CD0A18B1A8875
S2144045C09142F8D1618B5A889142F4D1626804993D
S2144045D09142F0D122689445EDD13D4B47489847EB
S2144045E0434B1B78580700F1F58213F0020F414AFF
S2144045F000F001833968A36ACB1A40F1F48213882D
S214404600002B00F0E782A37F204643F00203A37707
S2144046103B4B9847DEE23B4A116822468A46BAF14F
S214404620000F40F0EE82DFF8A8A03748D047336846
S214404630DFF898909889C047344B00F03F00D0464A
S21440464098473348D047002C00F0AB82207E314B51
S2144046509847314B298900225D609A461981D9F8DE
S21440466000101A6019612D490A602D490A70894662
S2144046701F4A1078934610F0080F1EBF6B7B43F01E
S21440468001036B73A36F33B9264B1C609BF8003055
S2144046905D070FD461E02046234B98470A3000F070
S2144046A07282A36F002BEFD0124B1B88002B40F07A
S2144046B06A82E9E7237E022B44D11C4B226D1B689D
S2144046C09A4240F0708326E2782440208824402096
S2144046D0957240001CBF4000E837402095164000C9
S2144046E04BBF40005F0D400088BF4000E037402091
S2144046F0842440207C24402014484020A1BF400011
S214404700E55540001C4840207CC0400055374000DE
S214404710ABC0400081354000902440208C2440208F
S214404720852440202C4840200536400080244020E8
S214404730D13740003925400075104000690D4000D3
S214404740742440203B68A26A9B1A00F12C83A28DF9
S2144047509B1A002B00F32783DDE113F0020FA37FA3
S21440476003D0227E023A012A7BD8D80604F13600CE
S2144047705EBF9A4B1B686362002384F89630984B62
S2144047809847237E023B072B00F2D181DFE813F0E7
S21440479008008500D700E5004E01D7007101AA0148
S2144047A0029BD4F850901D68236F1B695868059B80
S2144047B098474A46034629468A48C0478A4A137855
S2144047C0154603F01203122B55D1236F1B69586808
S2144047D0864B9847864B01301B6898424BD1B4F8BD
S2144047E06630A0640133E08EA4F866303B685A1CFD
S2144047F0013BA26222633268D189A4F86010D28954
S21440480063650423A4F86220E1182376794B984721
S214404810B4F8681000EB8003E08601395B0089B28B
S214404820A4F84E30B4F84C30A4F86810012B04BFFE
S214404830400080B2A4F84C006F48C047206F036821
S21440484023676E4B9847236F1BB94FF6FF73A386BB
S21440485003E00023A38684F84630D4F884301BB99E
S214404860A37F43F0020361E1002221462069984776
S2144048700A30F5D187E12B78D90640F15881336864
S214404880039A396810881A880144029801925B8816
S2144048905B4A00935B4B006840E09BF80030DA06CA
S2144048A03FD5534B1868A36CDB43C3422BD4236DD0
S2144048B0C31A002B27DC042353482376DAF810303B
S2144048C05A881988C0476369002B00F04C81002243
S2144048D021462069984718B10A3040F0448152E199
S2144048E04A4B2046B4F84C509847B4F8643013B15D
S2144048F0013BA4F86430E38E012D04BF5B009BB2FD
S214404900A4F84C301EE03368039A396815881A8834
S214404910294401925B883A4A00933A4B3C4DA8475B
S21440492005E19E0740F10381A36A3A4A013B1268BB
S214404930934240F0FC802046374B9847F7E02046AD
S214404940324B984799F800309D0640F1F080A37F9F
S21440495043F00203A37707233EE02C4B20469847BC
S21440496099F8003013F0200F9BF800302AD0D80674
S21440497022D51F4B226D1B689A421DD1DAF81030A3
S21440498026485A881988C047A37F204643F002032A
S214404990A377234B9847234A13689C4200F08280B3
S2144049A0214A00211360002B00F08E80D868844294
S2144049B07ED001210346F6E7A37F43F00203A377A8
S2144049C0082309E0D90640F1B280094B226D1B68E6
S2144049D09A4240F0AC8006232376A8E01848402050
S2144049E071434000C9C0400084244020690D400007
S2144049F08024402015344000F8C04000A52B4000DD
S214404A00E8374020E03740201EC140007D39400056
S214404A106959400074244020595A400046C140001D
S214404A20212C40001448402020484020974B2046E8
S214404A30984799F800309A0679D5DAF810309448B5
S214404A405A881988C047A37F204643F00203A377BD
S214404A50904B9847904A13689C4223D08F4A002137
S214404A601360002B30D0D868844221D00121034601
S214404A70F7E7864B204698479BF80030DB0656D52E
S214404A80874B226D1B689A4251D1DAF81030854820
S214404A905A881988C0477F4B204698477E4A1368F5
S214404AA09C4201D1E36810E07C4A0021136009E093
S214404AB001B11360E268DA6008E0D8688442F7D053
S214404AC001210346002BF8D101B113600122764B39
S214404AD01A700A232376754B1A681C60E260744B82
S214404AE0984724E0694B204698479BF80030DF06FD
S214404AF01DD56B4B226D1B689A4218D1DAF81030E0
S214404B006C485A881988C04799F8003043F010031B
S214404B1089F800300BE06848C04799F8003043F009
S214404B20080389F80030A37F23F00103A377634D81
S214404B302B781A0700F14081DE0618D4B4F86420BA
S214404B40002A40F04B815E4E3268002A00F06581B4
S214404B50A17F01F0100101F0FF03002900F0498118
S214404B601046584B98472046574B98470BE0A37F34
S214404B70DD0640F1298121464748544B9847214657
S214404B800120534B98470024524B534D1C60686895
S214404B904B4B1C60002800F066814A4B98476C607F
S214404BA061E14E48D047D9F8003098894C4B984739
S214404BB041070FD4039AD9F80030108839681A880C
S214404BC00144029801925B88464A0093464B00682F
S214404BD0464CA04728463B4B07B0BDE8F04F184729
S214404BE0324A1468E8E4A08D1B1A002B3FF707AD45
S214404BF033681088E3E7D90742BF3D4B1B686362C2
S214404C00FDE4BAF81AE05888864504D1DAF8000080
S214404C10844504D018B15246DAF80CA0FFE43AB105
S214404C20DAF80C30D360334BCAF80C10C3F800A047
S214404C303148DFF8E080C047304B1B785A07C9D46C
S214404C4003F0100202F0FF0472B12D48C0473368EB
S214404C502C4A396810881A880144114801925B88AA
S214404C60204A0093204BB2E79B07B3D533682648CB
S214404C705A881988C0479AF81900244B9847064620
S214404C80002849D12248C047A4E700BF7D394000EC
S214404C9075C14000212C4000144840202048402048
S214404CA080244020A4C1400010484020284840208E
S214404CB0291E4000D0C1400060C2400085244020EC
S214404CC08C244020D52540009D32400021304000B5
S214404CD0812240002C4840209024402035C240008D
S214404CE05F0D4000E8374020E037402069594000DB
S214404CF0184840201C484020D1BF40008424402013
S214404D00FEBF40007C2440202EC04000C132400000
S214404D1052C0400095724000544B1B680360BAF87E
S214404D201A304383524B1B684360524B1A681388B1
S214404D308383032303763B68591C013B81620163EE
S214404D40D189A0F86010D289A0F84E10A0F8622051
S214404D504365DAF810300361DAF8143043619AF8A4
S214404D60083023F073030372D9F80030C9F8000006
S214404D70C360414B98470122404B06F136001A70FB
S214404D803F4B9847311D3F4BF08E98471221F08697
S214404D9030463D4B984720B1214630463B4B9847DE
S214404DA018E7304634E4A26A39683948C047A26AF0
S214404DB039683748C047BAE6D4F88C30002B3FF401
S214404DC0DAAE6FF00A0106E0D4F88C30002B3FF4E0
S214404DD0D2AE6FF00B0120699847CCE6E36F002B0C
S214404DE03FF4B1AE2146206998470A307FF4ABAE17
S214404DF0C9E6D4F8807017B12146206903E03B46E7
S214404E0038462146234FB84710F10A0F3FF4BBAE51
S214404E1018B133682048A367C0472B78980618D542
S214404E20A36F23B15A7B42F020025A7311E0A38D40
S214404E3040F66832D4F8805093421CBF0133A385B5
S214404E403DB10023214620691A46A8470A303FF460
S214404E509AAE0022114B20461A60114B9847207E8E
S214404E60104B98478FE607B0BDE8F08FE8374020F4
S214404E70E037402088244020291E4000104840202B
S214404E807143400015344000D5534000E1314000A6
S214404E907FC24000D5354000FDC140002C48402030
S214404EA0E5554000813540002DE9F84F9DF82880B3
S214404EB09A468146032018F0010508F002030F4683
S214404EC0164618BF0425002B14BF0C2300231D4490
S214404ED0284B9847044630B9274B284898473846C9
S214404EE0274B984742E080F80C804FF00008476018
S214404EF01421C0F800803B89A0F80A805B1B038120
S214404F003846204B9847074640B11B4B1E489847AB
S214404F1020461E4B98474046BDE8F88F6368C5F369
S214404F208705DFF87080D3F804B00535C4F810B0B4
S214404F3046EA0535B9F81A00C047ABF80000D4F881
S214404F4010B0B9F81C00C047ABF80200D4F8109077
S214404F5050460F4B9847C9F80400D4F81090A8B2B2
S214404F60C047A9F80C0023699F74DF742046BDE84B
S214404F70F88F00BF2D22400095724000B4C240001A
S214404F80D525400039254000D4C24000A52B40001E
S214404F90650D4000590D40001431164B2DE9F04187
S214404FA089B2054690460120002298470746E8B158
S214404FB04468114E688BB0472080A88BB0470F4B93
S214404FC06080C4F80480A86A9847A06045F2100044
S214404FD0B047A081E88DB0470023E0812374637416
S214404FE0A374E374EB8DAA6A13442B633846BDE87A
S214404FF0F08100BF61264000590D4000650D40001D
S2144050002DE9F04F8DB0B0F86260C78E0546099323
S21440501043F0010306919246009313469A4C0A4683
S21440502001469A48A047069BA04633B9984B40F2A3
S2144050307F1298499848A047FEE72B7E072B07D05B
S214405040023B022B04D99548A0476FF00C00ADE117
S214405050BAF1000F1AD0B5F86620924503D95146EA
S2144050608F48C0470BE0B5F868108E48C047B5F883
S214405070681007290AD908228B48834B9847AB7F8C
S21440508063F07F03AB774FF0FF308FE17608BE4288
S2144050903346EE6E28BF3B460793B5F86830049318
S2144050A0002E00F07981336803930BB1039EFAE734
S2144050B0327B308912F0010FB5F86A7014BF0423B2
S2144050C0002312F0020F079AA2EB000214BF0C2135
S2144050D00021D31A5B1A99B277B1BA45D14628BF98
S2144050E0B946C9EB0707C9EB0101CA45BFB289B249
S2144050F040F2AB80344605E0BAF1000F00F0548130
S2144051003C46B94649B358B3C9EB0A0400220320CB
S214405110664B8C42A8BF0C4698478046A4B20028EF
S21440512000F01D814789224604813F1B44817389D4
S2144051304C44BFB21FFA84FB34463B447381069B03
S214405140406803EB09015A4B98475A4B40469847EC
S214405150049B03449BB2049304E0CB46884601E09C
S214405160CB468046002303930893D34567D2CBEBC8
S2144051700A03079A07999BB2934228BF1346002218
S21440518005931046494B98470446002800F00A818C
S2144051904789059B059AFF1ABDF814300381BFB2B4
S2144051A04381069B406803EB0B01414B9847414BBC
S2144051B020469847049B03449BB2082B049308D987
S2144051C019460822304B3C48984720463B4B984768
S2144051D0C9E0EB6D002221462846394C5B440092DC
S2144051E0A0470446002800F0BE80039B478113B1C9
S2144051F0089B186000E0039023695868314B089379
S214405200984722690B90089B5068984723892269E3
S21440521008930A9090892C4A904710F00300089B08
S21440522018BF01200B99C2180A9B28481A44164BEF
S2144052309847059B08945B441FFA83FB95E7B9F1B2
S214405240000F52D0B346264605E0B9F1000F5FD0B6
S214405250B346DDF80C80DBF80440154B002C37D005
S21440526022894A44228122685AB9B4F80AE04A465A
S214405270606806997044059398476289059B4A443E
S21440528062812468EAE700BF9572400009C3400087
S2144052903CC3400075C34000E7AD4000A6C3400095
S2144052A0CBC34000FDC3400017C440006126400009
S2144052B0217340003928400040C44000D5254000B6
S2144052C0A94E4000690D40005F0D400065C4400097
S2144052D0BBF8083034465E464B44ABF80830BBF863
S2144052E00A30C9EB0309ABF80A90A5F86A70B8F122
S2144052F0000F09D02F4B4146706898473289B8F85E
S21440530008301344338106E02EB9039BEB6604E075
S2144053103446A5F86A70039B3360EB6D049953449A
S2144053202548EB65B5F86630CAEB030ABDF8103081
S214405330A5F866A0A5F86830204B984744B3246982
S21440534034B3099B03F0020303F0FF0613BBA589A1
S21440535008201B4B98472843A081304626E021462C
S2144053601848164B9847AB7F63F07F03AB77B8F18E
S214405370000F02D04046144B9847039B13B1184683
S214405380124B9847B5F868100C4B114898477AE688
S21440539020460BE0002009E034463746B146B34687
S2144053A0B046DFE60599DBE75446B2E70DB0BDE808
S2144053B0F08F00BF5528400080C4400095724000E2
S2144053C0590D4000C0C44000D5254000CD2B4000BC
S2144053D0A1C440002DE9F34704463E4D0F46B0F8C1
S2144053E068103D482E46A847B4F86810072903D9E8
S2144053F008223A48A84721E007F00201B4F8663090
S214405400C9B2002916BF4FF001084FF0000804212A
S21440541023B93348A8474FF0FF3057E0002289B2FF
S214405420304B10469847014640B12F4D3A46CDF88E
S21440543000802046E36DA847054620B9A37F63F069
S2144054407F03A377E7E70369DFF8B0805868C04773
S2144054502B6981465868C0472B698246B5F8088054
S2144054609889224B984710F003003B46494618BFA0
S214405470012000EB08021E485244B047E36E0BB9C9
S214405480E56604E01A680AB11346FBE71D60002390
S214405490BA07A4F86A3007D0E36D0133E365B4F881
S2144054A06630013BA4F86630FB0742BFA37F43F05B
S2144054B02003A3770F4B68689847B4F868100844F1
S2144054C081B20D48A4F86810B047002002B0BDE88D
S2144054D0F08700BF95724000FEC4400020C54000E3
S2144054E051C5400061264000A94E40005F0D400077
S2144054F07EC5400039284000A9C54000690D4000DF
S2144055002DE9F041C46E054654B123680BB11C46E4
S214405510FBE7236998890C4B984710F0070705D09E
S21440552028460121094BBDE8F0411847266901206D
S214405530074BB48998472043B0813846AB7F43F049
S2144055402003AB77BDE8F0815F0D4000D5534000A7
S214405550590D40002DE9F34104461A4B006D98471B
S214405560194B0246002120469847184B054620B95D
S214405570174898476FF0010020E04768261DA16A4B
S21440558014489847A37F2146324623F00303284613
S214405590DFF84C80A3772B8900930623C04706226A
S2144055A038822146A37A28460192627A0A4C0092B3
S2144055B03246A0472846094B9847002002B0BDE82F
S2144055C0F08100BF650D4000994F40009572400045
S2144055D0D2C54000FDC540003D164000D5254000E0
S2144055E075104000474B2DE9F04F1B6889B00446C4
S2144055F0834200F09C81B0F86030B0F84C80C56EB5
S214405600984528BF9846837F9B0710D52DB92046DE
S2144056103D4B09B0BDE8F04F18472B6958683B4BE7
S21440562098472B89A26C9B1A18448045EFD3236F6A
S214405630049323B1049B1B680BB10493FAE7DFF88D
S214405640DC90002D3FD1E16E3148C847A36CB4F8DA
S2144056504C2000934346B4F860102E48C84728E0D4
S2144056602B695868B047049B82461B695868B04708
S214405670C0EB0A00002880F24D8104F1700ADAF887
S2144056800030002B40F03781DAF800302B60CAF843
S2144056900050059BE56E0133059365B12B69BDF956
S2144056A014A05868B0472B89A26C9B1A18448045B2
S2144056B036D2E36E13B90023A4F86A30A37F03F012
S2144056C07F03A37733E1B4F84C202B690592DFF8CB
S2144056D03CA05868B4F860B0D047A36C2E89F61A40
S2144056E02B6906445868D047A36C019059460293EC
S2144056F0434600965646059A0748C84700230593F2
S214405700CCE700BF2C48402055554000690D40006E
S2144057101DC640003FC6400005C740009572400089
S214405720236F9BB1A27F12F0440F0FD1E36E2BB1D3
S214405730196859B91989E38E994207D2B4F8663088
S21440574023B1B4F86830072B40F2EC80B4F84C2014
S2144057502B6907925868B4F860B0B0472989A36CA3
S214405760CB1A2969034406934868B047A16C069B48
S214405770CDF80CA002915946019000934346079AF3
S2144057806D48C8472B68DFF8D4A1E366237E022B1A
S2144057900DD02B691020B3F80CB00693D047069B6B
S2144057A04BEA00009881A37F23F00303A377D5F844
S2144057B010B0624BA06A9847CBF80800D5F810B0F6
S2144057C0E08DD047ABF80E00E38D04F1040AA26AE0
S2144057D0134423632B7B13F0010F0CD0D5F810B085
S2144057E05146574B40F2B4509847544B40F00170E6
S2144057F09847CBF81400B4F93430013304BF002383
S214405800A386236833B950464E4B9847002847D066
S21440581043682360A36B4BB94B4B1B68A3632B6950
S2144058205868B0470146E0634848C8472B69484F28
S2144058305868424B98472B69824658683F4B984772
S2144058402A89514604F1040A02444248C8476A6815
S2144058502B6951685B1A51899BB2C91A5181696894
S2144058600A89D31A0B8121466B682A695A6000223E
S2144058702B691A745A7452466868D5F810B0038972
S21440588000930623B8470622ABF810002146019243
S214405890627AA37A009252466868DFF8C4A0D0477E
S2144058A02B69DFF8C0A05868B0472B892A69834621
S2144058B006939089D04710F00300069B18BF01203E
S2144058C01844236D58441B1A002BB8BF20652A691C
